:060000000A128A11122809
:10000800FE00030EF1000408F2000A08F300831250
:1000180003137F08F4000A128A1148280A128A1169
:100028001528F80183010A128A111A28831203136A
:1000380085018601870188018901831603138501DB
:1000480086018701880189018316031788018901C0
:100058008330831603138100A0308B00063083128F
:100068000313810083120313023088060330F7005C
:100078008A30F6005630F500F50B4028F60B40287C
:10008800F70B4028472836288B1A0B1D59280630AD
:1000980081000B110130F0007008F8077D307802FC
:1000A800031C592801308806F8017408FF007308FA
:1000B8008A0072088400710E8300FE0E7E0E09000D
:04400E00D4E0FFFFFC
:00000001FF
