:060000000A128A11EE2F26
:100C82007E340034E2340034F2340034A8340034C8
:100C9200B03400347E088A007F0882000A128A116A
:100CA2004B260A128A118000840A04087D06031961
:100CB2000034FF0A0319FE0A4F2E203084002A3026
:100CC200F2000A30F30083130008F400040AF5006E
:100CD2007208840074088000040AF2007508840017
:100CE200F30B642E70037104031D782E792E7F2E70
:100CF200831203132A0887002C08850070087104E8
:100D0200031D842E852E8B2E831203132A0887003F
:100D120030088500023070067104031D912E922E58
:100D2200982E831203132C088700320885000330A3
:100D320070067104031D9E2E9F2EA52E831203138F
:100D42002E08870030088500080070037104031D17
:100D5200AB2EAC2EAF2E831203130816700871044B
:100D6200031DB42EB52EB82E83120313081272037C
:100D72007304031DBD2EBE2EC12E8312031308154C
:100D820072087304031DC62EC72ECA2E83120313C4
:100D9200081174087504031DCF2ED02ED32E831292
:100DA2000313881174037504031DD82ED92EDC2E6B
:100DB20083120313881576037704031DE12EE22EB6
:100DC200E52E83120313881776087704031DEA2E93
:100DD200EB2EEE2E831203138813080083120313E3
:100DE2008501860187018801831603138501FF307F
:100DF2008600870188015C308B0083160317880107
:100E020089010330831603138100F801F901C82F09
:100E12008312031386180E2F0F2F182FFF30850011
:100E2200FF3087000130F8000030F900172F061E4E
:100E32001B2F1C2F202F0A30F8000030F9008312DC
:100E42000313861D252F262F472F0230F000003076
:100E5200F1000A128A115E260A128A110130F0008C
:100E62000030F1000030F200F3000130F4000030F5
:100E7200F5000030F600F7000A128A11A6260A12BF
:100E82008A110230F8000030F900062F86194A2F25
:100E92004B2FEA2F0330F8000030F900062F83129F
:100EA20003138619552F562F5A2F0330F80000309E
:100EB200F9000130F0000030F1000130F2000030A2
:100EC200F3000030F400F5000130F6000030F700C6
:100ED2000A128A11A6260A128A11F801F90183124E
:100EE20003130619752F762F782FF801F901831253
:100EF2000313061A7D2F7E2F962F0130F00000304B
:100F0200F1000030F200F3000130F4000030F5008F
:100F12000030F600F7000A128A11A6260A128A1178
:100F22000630F8000030F900B12F061E992F9A2FD3
:100F3200B12F0130F0000030F1000030F200F30078
:100F42000030F400F5000130F6000030F7000A121C
:100F52008A11A6260A128A110730F8000030F90019
:100F6200831203138619B62FB72FBB2F0830F80050
:100F72000030F900831203138619C02FC12FC52F29
:100F82000830F8000030F900F801F901062F0030AE
:100F9200003A0319CD2F062F0030003A0319092F0A
:100FA200013A0319202F033A0319502F013A03196A
:100FB2005A2F073A0319702F013A0319782F033A6F
:100FC2000319B12F013A0319BB2F0F3A0319C52F89
:100FD200062F062F0A128A11002883132A30FD00D9
:100FE2000630FE004130FF00203084000A128A11D0
:0E0FF2004F260A128A1183010A128A11EF2E6D
:04400E00D420FF3F7C
:00000001FF
