:060000000A128A110C280F
:10000800FE00030EFB000A08FC000A128A1175297B
:100018000A128A110F2883133D30FD000230FE00BA
:100028009B30FF00333084000A128A118C220A1296
:100038008A11BD01BE0183010A128A11232860308A
:10004800831603138F048312031385018601870126
:100058008801831603138501FF3086008701880114
:100068005C308B00831603178801890103308316DF
:100078000313810083128619422843284929061947
:100088004628472849290230A0000030A1000A125A
:100098008A1109220A128A11003083120313A00060
:1000A800A1000030A200A3000030A400A500003089
:1000B800A600A7000A128A114D220A128A11831279
:1000C8000313BD01BE01492986186B286C287A28BC
:1000D8000030A000A1000A128A1109220A128A110E
:1000E800013083120313BD000030BE003E28861D78
:1000F8007E287F2899280130A0000030A100003018
:10010800A200A3000130A4000030A5000030A60022
:10011800A7000A128A114D220A128A11023083128C
:100128000313BD000030BE003E2886199C289D2878
:1001380071290330BD000030BE003E288619A5286D
:10014800A6283E289D280130A0000030A1000130DB
:10015800A2000030A3000030A400A5000130A600D2
:100168000030A7000A128A114D220A128A1104309F
:1001780083120313BD000030BE003E280619C528AF
:10018800C6283E280530BD000030BE003E28061AAD
:10019800CE28CF28E9280130A0000030A100003087
:1001A800A200A3000130A4000030A5000030A60082
:1001B800A7000A128A114D220A128A1106308312E8
:1001C8000313BD000030BE003E28061EEC28ED28B3
:1001D80071290130A0000030A1000030A200A30066
:1001E8000030A400A5000130A6000030A7000A12C4
:1001F8008A114D220A128A11073083120313BD0097
:100208000030BE003E2886190A290B293E280030F6
:10021800A000A1000030A200A3000030A400A500A7
:100228000030A600A7000A128A114D220A128A116C
:10023800083083120313BD000030BE003E28861923
:10024800262927293E280B29BD01BE013E288816EC
:10025800103083120313B2003930B1000D30B000F2
:10026800B00B3429B10B3429B20B34298312031390
:100278000817861A402941293E280B30BD00003056
:10028800BE003E280813881228293E08003A0319A0
:100298004E293E283D08003A03196828013A0319F7
:1002A8007B28033A0319A228013A0319A728073A19
:1002B8000319C228013A0319CB28033A031907295D
:1002C800013A031923290F3A03192829023A031975
:1002D8002B29013A031946293E283E280A128A1179
:1002E8000C280B1E78297929B9298B1C7C297D2992
:1002F800B9298B100030F000F1000030F200F30053
:100308000030F400F5000030F600F7000A128A11F8
:10031800C0210A128A111A30FA005E30F9006E30D4
:10032800F800F80B9529F90B9529FA0B9529000087
:10033800831203130618A129A229B9290130F00054
:100348000030F1000030F200F3000130F40000301A
:10035800F5000030F600F7000A128A11C0210A12CF
:100368008A1183120313BD01BE017C088A007B0E2B
:100378008300FE0E7E0E090070037104031DC5295B
:10038800C629C92983120313081670087104031DAE
:10039800CE29CF29D22983120313081272037304BA
:1003A800031DD729D829DB298312031308157208DE
:1003B8007304031DE029E129E429831203130811BA
:1003C80074087504031DE929EA29ED29831203132A
:1003D800881174037504031DF229F329F629831281
:1003E8000313881576037704031DFB29FC29FF29CD
:1003F80083120313881776087704031D042A052A35
:10040800082A8312031388130800FF30831203138A
:100418008700333084002630A2000A30A3008313FB
:100428000008A400040AA50022088400240880000B
:10043800040AA20025088400A30B132A2003210420
:10044800031D272A282A2C2A260887002808850021
:1004580020082104031D312A322A362A260887005B
:100468002C088500023020062104031D3C2A3D2A61
:10047800412AFF308700FF30850003302006210421
:10048800031D472A482A4C2A2A0887002C08850079
:1004980008008312031320032104031D542A552A3C
:1004A800562A081620082104031D5B2A5C2A5D2AA7
:1004B800081222032304031D622A632A642A0815EA
:1004C80022082304031D692A6A2A6B2A08112408B2
:1004D8002504031D702A712A722A88112403250411
:1004E800031D772A782A792A881526032704031DED
:1004F8007E2A7F2A802A881726082704031D852A32
:10050800862A872A881308007E088A007F088200C6
:100518000A128A1188220A128A118000840A0408A1
:100528007D0603190034FF0A0319FE0A8C2A7E345B
:100538000034E2340034F2340034A8340034B034E7
:0205480000347D
:04400E00D420FF3F7C
:00000001FF
