:060000000A128A11FC2F18
:100D2E00FF30831203138700080070037104031D44
:100D3E00A12EA22EA52E831203130816700871047D
:100D4E00031DAA2EAB2EAE2E8312031308127203AE
:100D5E007304031DB32EB42EB72E8312031308157E
:100D6E0072087304031DBC2EBD2EC02E83120313F6
:100D7E00081174087504031DC52EC62EC92E8312C4
:100D8E000313881174037504031DCE2ECF2ED22E9D
:100D9E0083120313881576037704031DD72ED82EDE
:100DAE00DB2E83120313881776087704031DE02EBB
:100DBE00E12EE42E8312031388130800831203130B
:100DCE008501860187018801831603138501FF3093
:100DDE008600870188015C308B008316031788011B
:100DEE0089010330831603138100FB01FC01D02F10
:100DFE00831203138618042F052F0D2FFF30850045
:100E0E00FF3087000130FB000030FC00FC2E831207
:100E1E000313861D132F142F352F0230F0000030D0
:100E2E00F1000A128A1197260A128A110130F00077
:100E3E000030F1000030F200F3000130F400003019
:100E4E00F5000030F600F7000A128A119C260A12ED
:100E5E008A110230FB000030FC00FC2E8619382F60
:100E6E00392FF82F0330FB000030FC00FC2E8312CC
:100E7E0003138619432F442FFC2E392F0130F00017
:100E8E000030F1000130F2000030F3000030F400C9
:100E9E00F5000130F6000030F7000A128A119C2688
:100EAE000A128A11FB01FC01FC2E83120313061990
:100EBE00612F622FFC2E592F83120313061A682FEF
:100ECE00692F812F0130F0000030F1000030F20068
:100EDE00F3000130F4000030F5000030F600F700AA
:100EEE000A128A119C260A128A110630FB00003063
:100EFE00FC00FC2E061E842F852FF82F0130F000EB
:100F0E000030F1000030F200F3000030F400F50084
:100F1E000130F6000030F7000A128A119C260A12E0
:100F2E008A110730FB000030FC00FC2E83120313E5
:100F3E008619A22FA32FFC2E0830FB000030FC00D8
:100F4E00FC2E831203138619AD2FAE2FFC2EA32F6A
:100F5E008312031388161030FA003930F9000D3061
:100F6E00F800F80BB82FF90BB82FFA0BB82FBF2FCC
:100F7E00831203130817061AC52FC62FFC2E0B302B
:100F8E00FB000030FC00FC2E8312031308138812A2
:100F9E00592F0030003A0319D52FFC2E0030003A9D
:100FAE000319FF2E013A03190E2F033A03193E2F90
:100FBE00013A0319452F073A03195C2F013A031919
:100FCE00632F033A03199D2F013A0319A82F0F3AE5
:100FDE000319592F023A0319AF2F013A0319CB2FD8
:100FEE00FC2EFC2E0A128A11002883010A128A1185
:020FFE00E52EDE
:04400E00D420FF3F7C
:00000001FF
