:060000000A128A110E280D
:10000800FE00030EFB000408FC000A08FD000A12AB
:100018008A1164290A128A11112883134730FD00B6
:100028000330FE000430FF003D3084000A128A11BC
:10003800F5220A128A11C701C80183010A128A111E
:1000480025286030831603138F0483120313850158
:10005800860187018801831603138501FF30860016
:10006800870188015C308B0083160317880189019A
:1000780003308316031381008312861D4428452804
:100088006728061D4828492867280230AA0000303A
:10009800AB000A128A112E220A128A11003083122A
:1000A8000313AA00AB000130AC000030AD000030F3
:1000B800AE00AF000030B000B1000A128A11B622BB
:1000C8000A128A116628C701C801382986186D28BE
:1000D8006E287628FF308500FF3087000130C70082
:1000E8000030C8004028861D7A287B28A0280230C6
:1000F800AA000030AB000A128A112E220A128A11B5
:10010800013083120313AA000030AB000030AC00AA
:10011800AD000130AE000030AF000030B000B100DB
:100128000A128A11B6220A128A11023083120313A4
:10013800C7000030C80040288619A328A4286029D1
:100148000330C7000030C80040288619AC28AD2805
:100158004028A4280130AA000030AB000130AC00D0
:100168000030AD000030AE00AF000130B00000300C
:10017800B1000A128A11B6220A128A1104308312B7
:100188000313C7000030C80040280619CC28CD2822
:100198004028C701C8014028061AD328D428EE28C9
:1001A8000130AA000030AB000030AC00AD000130D7
:1001B800AE000030AF000030B000B1000A128A1162
:1001C800B6220A128A11063083120313C7000030C0
:1001D800C8004028061EF128F22860290130AA002C
:1001E8000030AB000030AC00AD000030AE00AF0016
:1001F8000130B0000030B1000A128A11B6220A128A
:100208008A11073083120313C7000030C800402842
:1002180086190F29102940280830C7000030C80067
:1002280040288619182919294028102988161030BD
:1002380083120313BC003930BB000D30BA00BA0B6F
:100248002329BB0B2329BC0B23298312031308176B
:10025800861A2F29302940280B30C7000030C800E3
:10026800402808138812CD284808003A03193D2968
:1002780040284708003A03196A28013A03197728E1
:10028800033A0319A928013A0319AE28073A0319B2
:10029800C928013A0319D028033A03190C29013A4D
:1002A800031915290F3A0319CD28023A03191A29F7
:1002B800013A03193529402840280A128A110E28C4
:1002C8000B1E67296829DC298B1C6B296C29DC2902
:1002D8008B100030F000F1000030F200F300003025
:1002E800F400F5000030F600F7000A128A11E52143
:1002F8000A128A111A30FA005E30F9006E30F800DE
:10030800F80B8429F90B8429FA0B8429000083123D
:100318000313061890299129C1290130F0000030F3
:10032800F1000030F200F3000130F4000030F50075
:100338000030F600F7000A128A11E5210A128A1124
:10034800831203138619A929AA29A4290030F000C9
:10035800F1000030F200F3000130F4000030F50045
:100368000030F600F7000A128A11E5210A128A11F4
:1003780083120313C701C801DC290130F0000030E3
:10038800F1000A128A1172220A128A1183120313C7
:100398008618CF29D029CA29861CD329D429D0293F
:1003A8000030F000F1000A128A1172220A128A1132
:1003B8007D088A007C0884007B0E8300FE0E7E0E7A
:1003C800090070037104031DEA29EB29EE29831241
:1003D8000313081670087104031DF329F429F7297B
:1003E80083120313081272037304031DFC29FD29E9
:1003F800002A83120313081572087304031D052AC3
:10040800062A092A83120313081174087504031DA8
:100418000E2A0F2A122A83120313881174037504F3
:10042800031D172A182A1B2A83120313881576031B
:100438007704031D202A212A242A831203138817EC
:1004480076087704031D292A2A2A2D2A83120313E2
:1004580088130800FF308312031387003D3084009F
:100468003030AC000A30AD0083130008AE00040A37
:10047800AF002C0884002E088000040AAC002F0866
:100488008400AD0B382A2A032B04031D4C2A4D2A5D
:10049800512A30088700320885002A082B04031DDA
:1004A800562A572A5B2A300887003608850002300A
:1004B8002A062B04031D612A622A662A320887004D
:1004C8003808850003302A062B04031D6C2A6D2A80
:1004D800712A34088700360885000800FF30831227
:1004E800031387003D3084002030F2000A30F30007
:1004F80083130008F400040AF500720884007408E5
:100508008000040AF20075088400F30B7C2A70034B
:100518007104031D902A912A952A20088700220831
:10052800850070087104031D9A2A9B2A9F2A2008B7
:10053800870026088500023070067104031DA52A6D
:10054800A62AAA2A220887002808850003307006F0
:100558007104031DB02AB12AB52A24088700260889
:1005680085000800831203132A032B04031DBD2AE8
:10057800BE2ABF2A08162A082B04031DC42AC52A26
:10058800C62A08122C032D04031DCB2ACC2ACD2AF7
:1005980008152C082D04031DD22AD32AD42A0811A1
:1005A8002E082F04031DD92ADA2ADB2A88112E03E4
:1005B8002F04031DE02AE12AE22A881530033104BA
:1005C800031DE72AE82AE92A881730083104031DA1
:1005D800EE2AEF2AF02A881308007E088A007F088E
:1005E80082000A128A11F1220A128A118000840AF2
:1005F80004087D0603190034FF0A0319FE0AF52AC8
:100608007E340034E2340034F2340034A834003448
:04061800B0340034C6
:04400E00D420FF3F7C
:00000001FF
