:060000000A128A110E280D
:10000800FE00030EFB000408FC000A08FD000A12AB
:100018008A113D2B0A128A11112883134730FD00DB
:100028000330FE006730FF003D3084000A128A1159
:1000380058230A128A11C701C801C901CA018301DC
:100048000A128A1127286030831603138F0483123B
:10005800031385018601870188018316031385012F
:10006800FF3086008701880190308B0083160317C4
:100078008801890103308316031381000430831239
:100088000313AA000030AB000A128A111B220A12BD
:100098008A11003083120313AA00AB000030AC00B1
:1000A800AD000030AE00AF000030B000B1000A1261
:1000B8008A1102230A128A1183120313C701C80185
:1000C8008619672868288C2906196B286C288C29BA
:1000D8000230AA000030AB000A128A111B220A1251
:1000E8008A11003083120313AA00AB000030AC0061
:1000F800AD000030AE00AF000030B000B1000A1211
:100108008A1102230A128A1183120313C901CA0130
:100118008C2947034804031D922893289C28013002
:10012800AA000030AB000A128A111B220A128A1197
:10013800043083120313AA000030AB000A128A119C
:100148001B220A128A11831203138618AC28AD28C1
:10015800BD28C701C8010030AA00AB000A128A11E5
:100168001B220A128A11013083120313C9000030BE
:10017800CA006428861DC128C228DC280130AA00CC
:100188000030AB000030AC00AD000130AE000030F4
:10019800AF000030B000B1000A128A1102230A121F
:1001A8008A11023083120313C9000030CA00642880
:1001B8008619DF28E028B4290330C9000030CA00B6
:1001C80064288619E828E9286428E0280130AA006C
:1001D8000030AB000130AC000030AD000030AE00A4
:1001E800AF000130B0000030B1000A128A110223BA
:1001F8000A128A11043083120313C9000030CA009E
:10020800642806190829092964280530C90000301E
:10021800CA006428061A112912292C290130AA00BB
:100228000030AB000030AC00AD000130AE00003053
:10023800AF000030B000B1000A128A1102230A127E
:100248008A11063083120313C9000030CA006428DB
:10025800061E2F293029B4290130AA000030AB002E
:100268000030AC00AD000030AE00AF000130B0008F
:100278000030B1000A128A1102230A128A110730CB
:1002880083120313C9000030CA00642886194D2957
:100298004E2964280030AA00AB000030AC00AD0045
:1002A8000030AE00AF000030B000B1000A128A1171
:1002B80002230A128A11083083120313C90000307E
:1002C800CA006428861969296A2964284E29C9013F
:1002D800CA0164288816103083120313BC00393011
:1002E800BB000D30BA00BA0B7729BB0B7729BC0BC2
:1002F8007729831203130817861A83298429642807
:100308000B30C9000030CA006428081388126B2912
:100318004A08003A0319912964284908003A031940
:100328008D28013A0319BE28033A0319E528013A32
:100338000319EA28073A03190529013A03190E296E
:10034800033A03194A29013A031966290F3A03198E
:100358006B29023A03196E29013A0319892964287D
:1003680064280A128A110E280030F000F1000030CB
:10037800F200F3000030F400F5000030F600F7005A
:100388000A128A11B9220A128A110130F0000030CB
:10039800F1000A128A116A220A128A1101308312A4
:1003A8000313C7000030C8001A30FA005E30F900A5
:1003B8006E30F800F80BDE29F90BDE29FA0BDE297E
:1003C8000000831203130618EA29EB29162AFF29CD
:1003D8000130F0000030F1000030F200F30001308D
:1003E800F4000030F5000030F600F7000A128A1118
:1003F800B9220A128A11831203138619042A052ABC
:10040800EC290030F000F1000030F200F300003079
:10041800F400F5000030F600F7000A128A11B9223C
:100428000A128A1183120313C901CA010800FF3096
:100438008312031387003D3084003030AC000A304B
:10044800AD0083130008AE00040AAF002C08840036
:100458002E088000040AAC002F088400AD0B252A62
:100468002A032B04031D392A3A2A3E2A300887001A
:10047800320885002A082B04031D432A442A482AE7
:10048800300887003608850002302A062B04031D31
:100498004E2A4F2A532A320887003808850003302D
:1004A8002A062B04031D592A5A2A5E2A3408870073
:1004B8003608850004302A062B04031D642A652AA1
:1004C800692A3F308700300885000800FF30831212
:1004D800031387003D3084002030F2000A30F30017
:1004E80083130008F400040AF500720884007408F5
:1004F8008000040AF20075088400F30B742A700364
:100508007104031D882A892A8D2A20088700220859
:10051800850070087104031D922A932A972A2008DF
:10052800870026088500023070067104031D9D2A85
:100538009E2AA22A22088700280885000330700610
:100548007104031DA82AA92AAD2A240887002608B1
:100558008500043070067104031DB32AB42AB82A32
:100568003F30870020088500080070037104031DD0
:10057800BE2ABF2AC22A8312031308167008710400
:10058800031DC72AC82ACB2A831203130812720331
:100598007304031DD02AD12AD42A83120313081501
:1005A80072087304031DD92ADA2ADD2A8312031379
:1005B800081174087504031DE22AE32AE62A831247
:1005C8000313881174037504031DEB2AEC2AEF2A20
:1005D80083120313881576037704031DF42AF52A7A
:1005E800F82A83120313881776087704031DFD2A57
:1005F800FE2A012B831203138813080083120313A6
:100608002A032B04031D092B0A2B0B2B08162A0877
:100618002B04031D102B112B122B08122C032D0455
:10062800031D172B182B192B08152C082D04031D37
:100638001E2B1F2B202B08112E082F04031D252BE2
:10064800262B272B88112E032F04031D2C2B2D2B33
:100658002E2B881530033104031D332B342B352BF7
:10066800881730083104031D3A2B3B2B3C2B881389
:1006780008000B1E402B412B4B2B8B1C442B452B6E
:100688004B2B8B100A128A11B8210A128A117D0885
:100698008A007C0884007B0E8300FE0E7E0E090013
:1006A8007E088A007F0882000A128A1154230A12DF
:1006B8008A118000840A04087D0603190034FF0AA1
:1006C8000319FE0A582B3F3400347134003479344E
:0A06D8000034543400345834003468
:04400E00D420FF3F7C
:00000001FF
