:060000000A128A110E280D
:10000800FE00030EFB000408FC000A08FD000A12AB
:100018008A117F290A128A11112883134730FD009B
:100028000330FE001F30FF003D3084000A128A11A1
:1000380010230A128A11C701C80183010A128A1102
:1000480025286030831603138F0483120313850158
:10005800860187018801831603138501FF30860016
:10006800870188015C308B0083160317880189019A
:100078000330831603138100831286194428452808
:10008800532906194828492853290230AA00003064
:10009800AB000A128A1149220A128A11003083120F
:1000A8000313AA00AB000130AC000030AD000030F3
:1000B800AE00AF000030B000B1000A128A11D122A0
:1000C8000A128A11662886186A286B28792800304F
:1000D800AA00AB000A128A1149220A128A110130B9
:1000E80083120313C7000030C8004028861D7D28EE
:1000F8007E28A3280230AA000030AB000A128A1119
:1001080049220A128A11013083120313AA0000300F
:10011800AB000030AC00AD000130AE000030AF00E5
:100128000030B000B1000A128A11D1220A128A11D5
:10013800023083120313C7000030C8004028861914
:10014800A628A7287B290330C7000030C80040280C
:100158008619AF28B0284028A7280130AA00003007
:10016800AB000130AC000030AD000030AE00AF0095
:100178000130B0000030B1000A128A11D1220A12EF
:100188008A11043083120313C7000030C8004028C6
:100198000619CF28D02840280530C7000030C800ED
:1001A8004028061AD828D928F3280130AA00003098
:1001B800AB000030AC00AD000130AE000030AF0045
:1001C8000030B000B1000A128A11D1220A128A1135
:1001D800063083120313C7000030C8004028061EEB
:1001E800F628F7287B290130AA000030AB00003040
:1001F800AC00AD000030AE00AF000130B000003000
:10020800B1000A128A11D1220A128A110730831208
:100218000313C7000030C80040288619142915297F
:1002280040280030AA00AB000030AC00AD00003020
:10023800AE00AF000030B000B1000A128A11D1221E
:100248000A128A11083083120313C7000030C8004D
:10025800402886193029312940281529C701C801A5
:1002680040288816103083120313BC003930BB00B5
:100278000D30BA00BA0B3E29BB0B3E29BC0B3E29F8
:10028800831203130817861A4A294B2940280B3072
:10029800C7000030C80040280813881232294808CF
:1002A800003A0319582940284708003A03196728D3
:1002B800013A03197A28033A0319AC28013A0319B9
:1002C800B128073A0319CC28013A0319D528033A6B
:1002D80003191129013A03192D290F3A0319322953
:1002E800023A03193529013A0319502940284028B0
:1002F8000A128A110E280B1E82298329F7298B1CC2
:1003080086298729F7298B100030F000F10000308A
:10031800F200F3000030F400F5000030F600F700BA
:100328000A128A1100220A128A111A30FA005E3063
:10033800F9006E30F800F80B9F29F90B9F29FA0B8A
:100348009F290000831203130618AB29AC29DC2966
:100358000130F0000030F1000030F200F30001300D
:10036800F4000030F5000030F600F7000A128A1198
:1003780000220A128A11831203138619C429C52977
:10038800BF290030F000F1000030F200F300013026
:10039800F4000030F5000030F600F7000A128A1168
:1003A80000220A128A1183120313C701C801F72910
:1003B8000130F0000030F1000A128A118D220A1271
:1003C8008A11831203138618EA29EB29E529861C6A
:1003D800EE29EF29EB290030F000F1000A128A110A
:1003E8008D220A128A117D088A007C0884007B0EFF
:1003F8008300FE0E7E0E090070037104031D052A9A
:10040800062A092A83120313081670087104031DAB
:100418000E2A0F2A122A8312031308127203730476
:10042800031D172A182A1B2A83120313081572089A
:100438007304031D202A212A242A83120313081176
:1004480074087504031D292A2A2A2D2A83120313E6
:10045800881174037504031D322A332A362A83123D
:100468000313881576037704031D3B2A3C2A3F2A89
:1004780083120313881776087704031D442A452A34
:10048800482A8312031388130800FF3083120313CA
:1004980087003D3084003030AC000A30AD00831353
:1004A8000008AE00040AAF002C0884002E08800063
:1004B800040AAC002F088400AD0B532A2A032B042E
:1004C800031D672A682A6C2A3008870032088500CD
:1004D8002A082B04031D712A722A762A30088700FD
:1004E8003608850002302A062B04031D7C2A7D2A43
:1004F800812AFF3087003808850003302A062B043C
:10050800031D872A882A8C2A340887003608850024
:100518000800FF308312031387003D308400203029
:10052800F2000A30F30083130008F400040AF5000F
:100538007208840074088000040AF20075088400B8
:10054800F30B972A70037104031DAB2AAC2AB02A57
:10055800200887002208850070087104031DB52A49
:10056800B62ABA2A200887002608850002307006B5
:100578007104031DC02AC12AC52AFF308700280834
:100588008500033070067104031DCB2ACC2AD02ABB
:1005980024088700260885000800831203132A030D
:1005A8002B04031DD82AD92ADA2A08162A082B046C
:1005B800031DDF2AE02AE12A08122C032D04031D5B
:1005C800E62AE72AE82A08152C082D04031DED2A37
:1005D800EE2AEF2A08112E082F04031DF42AF52A03
:1005E800F62A88112E032F04031DFB2AFC2AFD2A54
:1005F800881530033104031D022B032B042B8817A5
:1006080030083104031D092B0A2B0B2B8813080013
:100618007E088A007F0882000A128A110C230A12B7
:100628008A118000840A04087D0603190034FF0A31
:100638000319FE0A102B7E340034E2340034F234FD
:0A0648000034A8340034B03400344C
:04400E00D420FF3F7C
:00000001FF
