:060000000A128A110E280D
:10000800FE00030EFB000408FC000A08FD000A12AB
:100018008A11542B0A128A11112883134730FD00C4
:100028000330FE007E30FF003D3084000A128A1142
:100038006F230A128A11C701C801C901CA018301C5
:100048000A128A1127286030831603138F0483123B
:10005800031385018601870188018316031385012F
:10006800FF3086008701880190308B0083160317C4
:100078008801890103308316031381000430831239
:100088000313AA000030AB000A128A1132220A12A6
:100098008A11003083120313AA00AB000030AC00B1
:1000A800AD000030AE00AF000030B000B1000A1261
:1000B8008A1119230A128A1183120313C701C8016E
:1000C8008619672868289D2906196B286C289D2998
:1000D8000230AA000030AB000A128A1132220A123A
:1000E8008A11003083120313AA00AB000030AC0061
:1000F800AD000030AE00AF000030B000B1000A1211
:100108008A1119230A128A1183120313C901CA0119
:100118009D2947034804031D922893289C280130F1
:10012800AA000030AB000A128A1132220A128A1180
:10013800043083120313AA000030AB000A128A119C
:1001480032220A128A11831203138618AC28AD28AA
:10015800BD28C701C8010030AA00AB000A128A11E5
:1001680032220A128A11013083120313C9000030A7
:10017800CA00861EC028C12864280A30C900003079
:10018800CA006428861DC928CA28E4280130AA00A4
:100198000030AB000030AC00AD000130AE000030E4
:1001A800AF000030B000B1000A128A1119230A12F8
:1001B8008A11023083120313C9000030CA00642870
:1001C8008619E728E828CB290330C9000030CA007F
:1001D80064288619F028F1286428E8280130AA0044
:1001E8000030AB000130AC000030AD000030AE0094
:1001F800AF000130B0000030B1000A128A11192393
:100208000A128A11043083120313C9000030CA008D
:10021800642806191029112964280530C9000030FE
:10022800CA006428061A19291A2934290130AA0093
:100238000030AB000030AC00AD000130AE00003043
:10024800AF000030B000B1000A128A1119230A1257
:100258008A11063083120313C9000030CA006428CB
:10026800061E37293829CB290130AA000030AB00F7
:100278000030AC00AD000030AE00AF000130B0007F
:100288000030B1000A128A1119230A128A110730A4
:1002980083120313C9000030CA006428861955293F
:1002A800562964280030AA00AB000030AC00AD002D
:1002B8000030AE00AF000030B000B1000A128A1161
:1002C80019230A128A11083083120313C900003057
:1002D800CA00642886197129722964285629C90117
:1002E800CA01642888161430C9000030CA0064287E
:1002F800103083120313BC003930BB000D30BA0034
:10030800BA0B8429BB0B8429BC0B842983120313E1
:100318000817061F9029912964281E30C90000304B
:10032800CA006428081388122830C9000030CA009F
:1003380073294A08003A0319A22964284908003A8F
:1003480003198D28013A0319C628033A0319ED2821
:10035800013A0319F228073A03190D29013A03193A
:100368001629033A03195229013A03196E290F3A3B
:1003780003197329023A031976291E3A03197C29AD
:100388000A3A03199629363A031973296428642806
:100398000A128A110E280030F000F1000030F20035
:1003A800F3000030F400F5000030F600F7000A1200
:1003B8008A11D0220A128A110130F0000030F100AF
:1003C8000A128A1181220A128A1101308312031338
:1003D800C7000030C8001A30FA005E30F9006E30ED
:1003E800F800F80BF529F90BF529FA0BF5290000A7
:1003F800831203130618012A022A2D2A162A01300D
:10040800F0000030F1000030F200F3000130F40099
:100418000030F5000030F600F7000A128A11D022E9
:100428000A128A118312031386191B2A1C2A032A0B
:100438000030F000F1000030F200F3000030F4006A
:10044800F5000030F600F7000A128A11D0220A12CD
:100458008A1183120313C901CA010800FF308312ED
:10046800031387003D3084003030AC000A30AD0003
:1004780083130008AE00040AAF002C0884002E087D
:100488008000040AAC002F088400AD0B3C2A2A0324
:100498002B04031D502A512A552A30088700320898
:1004A80085002A082B04031D5A2A5B2A5F2A300874
:1004B80087003608850002302A062B04031D652AAA
:1004C800662A6A2A320887003808850003302A0617
:1004D8002B04031D702A712A752A340887003608F0
:1004E800850004302A062B04031D7B2A7C2A802AD7
:1004F8003F308700300885000800FF30831203135F
:1005080087003D3084002030F2000A30F300831366
:100518000008F400040AF5007208840074088000DA
:10052800040AF20075088400F30B8B2A7003710427
:10053800031D9F2AA02AA42A2008870022088500D4
:1005480070087104031DA92AAA2AAE2A2008870068
:1005580026088500023070067104031DB42AB52AE6
:10056800B92A22088700280885000330700671041C
:10057800031DBF2AC02AC42A24088700260885002C
:10058800043070067104031DCA2ACB2ACF2A3F30D3
:10059800870020088500080070037104031DD52A10
:1005A800D62AD92A83120313081670087104031D6A
:1005B800DE2ADF2AE22A8312031308127203730465
:1005C800031DE72AE82AEB2A831203130815720889
:1005D8007304031DF02AF12AF42A83120313081165
:1005E80074087504031DF92AFA2AFD2A83120313D5
:1005F800881174037504031D022B032B062B831229
:100608000313881576037704031D0B2B0C2B0F2B74
:1006180083120313881776087704031D142B152BF0
:10062800182B8312031388130800831203132A0359
:100638002B04031D202B212B222B08162A082B0400
:10064800031D272B282B292B08122C032D04031DEF
:100658002E2B2F2B302B08152C082D04031D352B82
:10066800362B372B08112E082F04031D3C2B3D2B4E
:100678003E2B88112E032F04031D432B442B452B9F
:10068800881530033104031D4A2B4B2B4C2B88173C
:1006980030083104031D512B522B532B88130800AB
:1006A8000B1E572B582B622B8B1C5B2B5C2B622B46
:1006B8008B100A128A11CF210A128A117D088A002A
:1006C8007C0884007B0E8300FE0E7E0E09007E08E7
:1006D8008A007F0882000A128A116B230A128A1183
:1006E8008000840A04087D0603190034FF0A0319F0
:1006F800FE0A6F2B3F3400347134003479340034EF
:0807080054340034583400346D
:04400E00D420FF3F7C
:00000001FF
